{
  "contractName": "Elements",
  "abi": [
    {
      "inputs": [],
      "stateMutability": "nonpayable",
      "type": "constructor"
    },
    {
      "anonymous": false,
      "inputs": [
        {
          "indexed": true,
          "internalType": "address",
          "name": "owner",
          "type": "address"
        },
        {
          "indexed": true,
          "internalType": "address",
          "name": "approved",
          "type": "address"
        },
        {
          "indexed": true,
          "internalType": "uint256",
          "name": "tokenId",
          "type": "uint256"
        }
      ],
      "name": "Approval",
      "type": "event"
    },
    {
      "anonymous": false,
      "inputs": [
        {
          "indexed": true,
          "internalType": "address",
          "name": "owner",
          "type": "address"
        },
        {
          "indexed": true,
          "internalType": "address",
          "name": "operator",
          "type": "address"
        },
        {
          "indexed": false,
          "internalType": "bool",
          "name": "approved",
          "type": "bool"
        }
      ],
      "name": "ApprovalForAll",
      "type": "event"
    },
    {
      "anonymous": false,
      "inputs": [
        {
          "indexed": false,
          "internalType": "address",
          "name": "",
          "type": "address"
        },
        {
          "indexed": false,
          "internalType": "uint256",
          "name": "",
          "type": "uint256"
        },
        {
          "indexed": false,
          "internalType": "uint256",
          "name": "",
          "type": "uint256"
        },
        {
          "indexed": false,
          "internalType": "uint256",
          "name": "",
          "type": "uint256"
        }
      ],
      "name": "NewElement",
      "type": "event"
    },
    {
      "anonymous": false,
      "inputs": [
        {
          "indexed": true,
          "internalType": "address",
          "name": "from",
          "type": "address"
        },
        {
          "indexed": true,
          "internalType": "address",
          "name": "to",
          "type": "address"
        },
        {
          "indexed": true,
          "internalType": "uint256",
          "name": "tokenId",
          "type": "uint256"
        }
      ],
      "name": "Transfer",
      "type": "event"
    },
    {
      "inputs": [
        {
          "internalType": "address",
          "name": "to",
          "type": "address"
        },
        {
          "internalType": "uint256",
          "name": "tokenId",
          "type": "uint256"
        }
      ],
      "name": "approve",
      "outputs": [],
      "stateMutability": "nonpayable",
      "type": "function"
    },
    {
      "inputs": [
        {
          "internalType": "address",
          "name": "owner",
          "type": "address"
        }
      ],
      "name": "balanceOf",
      "outputs": [
        {
          "internalType": "uint256",
          "name": "",
          "type": "uint256"
        }
      ],
      "stateMutability": "view",
      "type": "function",
      "constant": true
    },
    {
      "inputs": [
        {
          "internalType": "uint256",
          "name": "tokenId",
          "type": "uint256"
        }
      ],
      "name": "getApproved",
      "outputs": [
        {
          "internalType": "address",
          "name": "",
          "type": "address"
        }
      ],
      "stateMutability": "view",
      "type": "function",
      "constant": true
    },
    {
      "inputs": [
        {
          "internalType": "address",
          "name": "owner",
          "type": "address"
        },
        {
          "internalType": "address",
          "name": "operator",
          "type": "address"
        }
      ],
      "name": "isApprovedForAll",
      "outputs": [
        {
          "internalType": "bool",
          "name": "",
          "type": "bool"
        }
      ],
      "stateMutability": "view",
      "type": "function",
      "constant": true
    },
    {
      "inputs": [],
      "name": "name",
      "outputs": [
        {
          "internalType": "string",
          "name": "",
          "type": "string"
        }
      ],
      "stateMutability": "view",
      "type": "function",
      "constant": true
    },
    {
      "inputs": [
        {
          "internalType": "uint256",
          "name": "tokenId",
          "type": "uint256"
        }
      ],
      "name": "ownerOf",
      "outputs": [
        {
          "internalType": "address",
          "name": "",
          "type": "address"
        }
      ],
      "stateMutability": "view",
      "type": "function",
      "constant": true
    },
    {
      "inputs": [
        {
          "internalType": "address",
          "name": "from",
          "type": "address"
        },
        {
          "internalType": "address",
          "name": "to",
          "type": "address"
        },
        {
          "internalType": "uint256",
          "name": "tokenId",
          "type": "uint256"
        }
      ],
      "name": "safeTransferFrom",
      "outputs": [],
      "stateMutability": "nonpayable",
      "type": "function"
    },
    {
      "inputs": [
        {
          "internalType": "address",
          "name": "from",
          "type": "address"
        },
        {
          "internalType": "address",
          "name": "to",
          "type": "address"
        },
        {
          "internalType": "uint256",
          "name": "tokenId",
          "type": "uint256"
        },
        {
          "internalType": "bytes",
          "name": "_data",
          "type": "bytes"
        }
      ],
      "name": "safeTransferFrom",
      "outputs": [],
      "stateMutability": "nonpayable",
      "type": "function"
    },
    {
      "inputs": [
        {
          "internalType": "address",
          "name": "operator",
          "type": "address"
        },
        {
          "internalType": "bool",
          "name": "approved",
          "type": "bool"
        }
      ],
      "name": "setApprovalForAll",
      "outputs": [],
      "stateMutability": "nonpayable",
      "type": "function"
    },
    {
      "inputs": [
        {
          "internalType": "bytes4",
          "name": "interfaceId",
          "type": "bytes4"
        }
      ],
      "name": "supportsInterface",
      "outputs": [
        {
          "internalType": "bool",
          "name": "",
          "type": "bool"
        }
      ],
      "stateMutability": "view",
      "type": "function",
      "constant": true
    },
    {
      "inputs": [],
      "name": "symbol",
      "outputs": [
        {
          "internalType": "string",
          "name": "",
          "type": "string"
        }
      ],
      "stateMutability": "view",
      "type": "function",
      "constant": true
    },
    {
      "inputs": [
        {
          "internalType": "uint256",
          "name": "index",
          "type": "uint256"
        }
      ],
      "name": "tokenByIndex",
      "outputs": [
        {
          "internalType": "uint256",
          "name": "",
          "type": "uint256"
        }
      ],
      "stateMutability": "view",
      "type": "function",
      "constant": true
    },
    {
      "inputs": [
        {
          "internalType": "address",
          "name": "owner",
          "type": "address"
        },
        {
          "internalType": "uint256",
          "name": "index",
          "type": "uint256"
        }
      ],
      "name": "tokenOfOwnerByIndex",
      "outputs": [
        {
          "internalType": "uint256",
          "name": "",
          "type": "uint256"
        }
      ],
      "stateMutability": "view",
      "type": "function",
      "constant": true
    },
    {
      "inputs": [
        {
          "internalType": "uint256",
          "name": "tokenId",
          "type": "uint256"
        }
      ],
      "name": "tokenURI",
      "outputs": [
        {
          "internalType": "string",
          "name": "",
          "type": "string"
        }
      ],
      "stateMutability": "view",
      "type": "function",
      "constant": true
    },
    {
      "inputs": [],
      "name": "totalSupply",
      "outputs": [
        {
          "internalType": "uint256",
          "name": "",
          "type": "uint256"
        }
      ],
      "stateMutability": "view",
      "type": "function",
      "constant": true
    },
    {
      "inputs": [
        {
          "internalType": "address",
          "name": "from",
          "type": "address"
        },
        {
          "internalType": "address",
          "name": "to",
          "type": "address"
        },
        {
          "internalType": "uint256",
          "name": "tokenId",
          "type": "uint256"
        }
      ],
      "name": "transferFrom",
      "outputs": [],
      "stateMutability": "nonpayable",
      "type": "function"
    },
    {
      "inputs": [
        {
          "internalType": "uint256",
          "name": "_id1",
          "type": "uint256"
        },
        {
          "internalType": "uint256",
          "name": "_id2",
          "type": "uint256"
        },
        {
          "internalType": "uint256",
          "name": "_nonce",
          "type": "uint256"
        }
      ],
      "name": "mintNew",
      "outputs": [],
      "stateMutability": "nonpayable",
      "type": "function"
    },
    {
      "inputs": [
        {
          "internalType": "uint256",
          "name": "_id",
          "type": "uint256"
        }
      ],
      "name": "getLevel",
      "outputs": [
        {
          "internalType": "uint8",
          "name": "",
          "type": "uint8"
        }
      ],
      "stateMutability": "pure",
      "type": "function",
      "constant": true
    }
  ],
  "bytecode": "0x60806040523480156200001157600080fd5b506040518060400160405280600881526020017f456c656d656e74730000000000000000000000000000000000000000000000008152506040518060400160405280600381526020017f454c4d000000000000000000000000000000000000000000000000000000000081525081600090805190602001906200009692919062000a3c565b508060019080519060200190620000af92919062000a3c565b50505033600a60006101000a81548173ffffffffffffffffffffffffffffffffffffffff021916908373ffffffffffffffffffffffffffffffffffffffff16021790555062000147600a60009054906101000a900473ffffffffffffffffffffffffffffffffffffffff167fc0000000000000000000000000000000000000000000000000000000000000006200024960201b60201c565b6200019b600a60009054906101000a900473ffffffffffffffffffffffffffffffffffffffff167fe0000000000000000000000000000000000000000000000000000000000000006200024960201b60201c565b620001ef600a60009054906101000a900473ffffffffffffffffffffffffffffffffffffffff167ff0000000000000000000000000000000000000000000000000000000000000006200024960201b60201c565b62000243600a60009054906101000a900473ffffffffffffffffffffffffffffffffffffffff167fa0000000000000000000000000000000000000000000000000000000000000006200024960201b60201c565b62000daf565b600073ffffffffffffffffffffffffffffffffffffffff168273ffffffffffffffffffffffffffffffffffffffff161415620002bc576040517f08c379a0000000000000000000000000000000000000000000000000000000008152600401620002b39062000ba5565b60405180910390fd5b620002cd816200042f60201b60201c565b1562000310576040517f08c379a0000000000000000000000000000000000000000000000000000000008152600401620003079062000b61565b60405180910390fd5b62000324600083836200049b60201b60201c565b6001600360008473ffffffffffffffffffffffffffffffffffffffff1673ffffffffffffffffffffffffffffffffffffffff168152602001908152602001600020600082825462000376919062000bd8565b92505081905550816002600083815260200190815260200160002060006101000a81548173ffffffffffffffffffffffffffffffffffffffff021916908373ffffffffffffffffffffffffffffffffffffffff160217905550808273ffffffffffffffffffffffffffffffffffffffff16600073ffffffffffffffffffffffffffffffffffffffff167fddf252ad1be2c89b69c2b068fc378daa952ba7f163c4a11628f55a4df523b3ef60405160405180910390a45050565b60008073ffffffffffffffffffffffffffffffffffffffff166002600084815260200190815260200160002060009054906101000a900473ffffffffffffffffffffffffffffffffffffffff1673ffffffffffffffffffffffffffffffffffffffff1614159050919050565b620004b3838383620005e260201b62000e961760201c565b600073ffffffffffffffffffffffffffffffffffffffff168373ffffffffffffffffffffffffffffffffffffffff1614156200050057620004fa81620005e760201b60201c565b62000548565b8173ffffffffffffffffffffffffffffffffffffffff168373ffffffffffffffffffffffffffffffffffffffff161462000547576200054683826200063060201b60201c565b5b5b600073ffffffffffffffffffffffffffffffffffffffff168273ffffffffffffffffffffffffffffffffffffffff16141562000595576200058f81620007ad60201b60201c565b620005dd565b8273ffffffffffffffffffffffffffffffffffffffff168273ffffffffffffffffffffffffffffffffffffffff1614620005dc57620005db8282620008f560201b60201c565b5b5b505050565b505050565b6008805490506009600083815260200190815260200160002081905550600881908060018154018082558091505060019003906000526020600020016000909190919091505550565b600060016200064a846200098160201b620008f11760201c565b62000656919062000c35565b90506000600760008481526020019081526020016000205490508181146200073c576000600660008673ffffffffffffffffffffffffffffffffffffffff1673ffffffffffffffffffffffffffffffffffffffff168152602001908152602001600020600084815260200190815260200160002054905080600660008773ffffffffffffffffffffffffffffffffffffffff1673ffffffffffffffffffffffffffffffffffffffff168152602001908152602001600020600084815260200190815260200160002081905550816007600083815260200190815260200160002081905550505b6007600084815260200190815260200160002060009055600660008573ffffffffffffffffffffffffffffffffffffffff1673ffffffffffffffffffffffffffffffffffffffff16815260200190815260200160002060008381526020019081526020016000206000905550505050565b60006001600880549050620007c3919062000c35565b90506000600960008481526020019081526020016000205490506000600883815481106200081a577f4e487b7100000000000000000000000000000000000000000000000000000000600052603260045260246000fd5b90600052602060002001549050806008838154811062000863577f4e487b7100000000000000000000000000000000000000000000000000000000600052603260045260246000fd5b906000526020600020018190555081600960008381526020019081526020016000208190555060096000858152602001908152602001600020600090556008805480620008d9577f4e487b7100000000000000000000000000000000000000000000000000000000600052603160045260246000fd5b6001900381819060005260206000200160009055905550505050565b60006200090d836200098160201b620008f11760201c565b905081600660008573ffffffffffffffffffffffffffffffffffffffff1673ffffffffffffffffffffffffffffffffffffffff168152602001908152602001600020600083815260200190815260200160002081905550806007600084815260200190815260200160002081905550505050565b60008073ffffffffffffffffffffffffffffffffffffffff168273ffffffffffffffffffffffffffffffffffffffff161415620009f5576040517f08c379a0000000000000000000000000000000000000000000000000000000008152600401620009ec9062000b83565b60405180910390fd5b600360008373ffffffffffffffffffffffffffffffffffffffff1673ffffffffffffffffffffffffffffffffffffffff168152602001908152602001600020549050919050565b82805462000a4a9062000c7a565b90600052602060002090601f01602090048101928262000a6e576000855562000aba565b82601f1062000a8957805160ff191683800117855562000aba565b8280016001018555821562000aba579182015b8281111562000ab957825182559160200191906001019062000a9c565b5b50905062000ac9919062000acd565b5090565b5b8082111562000ae857600081600090555060010162000ace565b5090565b600062000afb601c8362000bc7565b915062000b088262000d0e565b602082019050919050565b600062000b22602a8362000bc7565b915062000b2f8262000d37565b604082019050919050565b600062000b4960208362000bc7565b915062000b568262000d86565b602082019050919050565b6000602082019050818103600083015262000b7c8162000aec565b9050919050565b6000602082019050818103600083015262000b9e8162000b13565b9050919050565b6000602082019050818103600083015262000bc08162000b3a565b9050919050565b600082825260208201905092915050565b600062000be58262000c70565b915062000bf28362000c70565b9250827fffffffffffffffffffffffffffffffffffffffffffffffffffffffffffffffff0382111562000c2a5762000c2962000cb0565b5b828201905092915050565b600062000c428262000c70565b915062000c4f8362000c70565b92508282101562000c655762000c6462000cb0565b5b828203905092915050565b6000819050919050565b6000600282049050600182168062000c9357607f821691505b6020821081141562000caa5762000ca962000cdf565b5b50919050565b7f4e487b7100000000000000000000000000000000000000000000000000000000600052601160045260246000fd5b7f4e487b7100000000000000000000000000000000000000000000000000000000600052602260045260246000fd5b7f4552433732313a20746f6b656e20616c7265616479206d696e74656400000000600082015250565b7f4552433732313a2062616c616e636520717565727920666f7220746865207a6560008201527f726f206164647265737300000000000000000000000000000000000000000000602082015250565b7f4552433732313a206d696e7420746f20746865207a65726f2061646472657373600082015250565b61393e8062000dbf6000396000f3fe608060405234801561001057600080fd5b50600436106101165760003560e01c80636352211e116100a257806395d89b411161007157806395d89b4114610317578063a22cb46514610335578063b88d4fde14610351578063c87b56dd1461036d578063e985e9c51461039d57610116565b80636352211e1461026b57806370a082311461029b57806386481d40146102cb5780638f1766eb146102fb57610116565b806318160ddd116100e957806318160ddd146101b557806323b872dd146101d35780632f745c59146101ef57806342842e0e1461021f5780634f6ccce71461023b57610116565b806301ffc9a71461011b57806306fdde031461014b578063081812fc14610169578063095ea7b314610199575b600080fd5b610135600480360381019061013091906125f6565b6103cd565b6040516101429190612b81565b60405180910390f35b610153610447565b6040516101609190612b9c565b60405180910390f35b610183600480360381019061017e9190612648565b6104d9565b6040516101909190612ad5565b60405180910390f35b6101b360048036038101906101ae91906125ba565b61055e565b005b6101bd610676565b6040516101ca9190612dfe565b60405180910390f35b6101ed60048036038101906101e891906124b4565b610683565b005b610209600480360381019061020491906125ba565b6106e3565b6040516102169190612dfe565b60405180910390f35b610239600480360381019061023491906124b4565b610788565b005b61025560048036038101906102509190612648565b6107a8565b6040516102629190612dfe565b60405180910390f35b61028560048036038101906102809190612648565b61083f565b6040516102929190612ad5565b60405180910390f35b6102b560048036038101906102b0919061244f565b6108f1565b6040516102c29190612dfe565b60405180910390f35b6102e560048036038101906102e09190612648565b6109a9565b6040516102f29190612e19565b60405180910390f35b61031560048036038101906103109190612671565b6109be565b005b61031f610ae6565b60405161032c9190612b9c565b60405180910390f35b61034f600480360381019061034a919061257e565b610b78565b005b61036b60048036038101906103669190612503565b610cf9565b005b61038760048036038101906103829190612648565b610d5b565b6040516103949190612b9c565b60405180910390f35b6103b760048036038101906103b29190612478565b610e02565b6040516103c49190612b81565b60405180910390f35b60007f780e9d63000000000000000000000000000000000000000000000000000000007bffffffffffffffffffffffffffffffffffffffffffffffffffffffff1916827bffffffffffffffffffffffffffffffffffffffffffffffffffffffff19161480610440575061043f82610e9b565b5b9050919050565b6060600080546104569061319a565b80601f01602080910402602001604051908101604052809291908181526020018280546104829061319a565b80156104cf5780601f106104a4576101008083540402835291602001916104cf565b820191906000526020600020905b8154815290600101906020018083116104b257829003601f168201915b5050505050905090565b60006104e482610f7d565b610523576040517f08c379a000000000000000000000000000000000000000000000000000000000815260040161051a90612d3e565b60405180910390fd5b6004600083815260200190815260200160002060009054906101000a900473ffffffffffffffffffffffffffffffffffffffff169050919050565b60006105698261083f565b90508073ffffffffffffffffffffffffffffffffffffffff168373ffffffffffffffffffffffffffffffffffffffff1614156105da576040517f08c379a00000000000000000000000000000000000000000000000000000000081526004016105d190612d9e565b60405180910390fd5b8073ffffffffffffffffffffffffffffffffffffffff166105f9610fe9565b73ffffffffffffffffffffffffffffffffffffffff161480610628575061062781610622610fe9565b610e02565b5b610667576040517f08c379a000000000000000000000000000000000000000000000000000000000815260040161065e90612cbe565b60405180910390fd5b6106718383610ff1565b505050565b6000600880549050905090565b61069461068e610fe9565b826110aa565b6106d3576040517f08c379a00000000000000000000000000000000000000000000000000000000081526004016106ca90612dbe565b60405180910390fd5b6106de838383611188565b505050565b60006106ee836108f1565b821061072f576040517f08c379a000000000000000000000000000000000000000000000000000000000815260040161072690612bde565b60405180910390fd5b600660008473ffffffffffffffffffffffffffffffffffffffff1673ffffffffffffffffffffffffffffffffffffffff168152602001908152602001600020600083815260200190815260200160002054905092915050565b6107a383838360405180602001604052806000815250610cf9565b505050565b60006107b2610676565b82106107f3576040517f08c379a00000000000000000000000000000000000000000000000000000000081526004016107ea90612dde565b60405180910390fd5b6008828154811061082d577f4e487b7100000000000000000000000000000000000000000000000000000000600052603260045260246000fd5b90600052602060002001549050919050565b6000806002600084815260200190815260200160002060009054906101000a900473ffffffffffffffffffffffffffffffffffffffff169050600073ffffffffffffffffffffffffffffffffffffffff168173ffffffffffffffffffffffffffffffffffffffff1614156108e8576040517f08c379a00000000000000000000000000000000000000000000000000000000081526004016108df90612cfe565b60405180910390fd5b80915050919050565b60008073ffffffffffffffffffffffffffffffffffffffff168273ffffffffffffffffffffffffffffffffffffffff161415610962576040517f08c379a000000000000000000000000000000000000000000000000000000000815260040161095990612cde565b60405180910390fd5b600360008373ffffffffffffffffffffffffffffffffffffffff1673ffffffffffffffffffffffffffffffffffffffff168152602001908152602001600020549050919050565b60006109b78260001b6113e4565b9050919050565b6109c783610f7d565b80156109d857506109d782610f7d565b5b610a17576040517f08c379a0000000000000000000000000000000000000000000000000000000008152600401610a0e90612c3e565b60405180910390fd5b60008360001b905060008360001b90506000610a3e82858561142f9092919063ffffffff16565b905080610a80576040517f08c379a0000000000000000000000000000000000000000000000000000000008152600401610a7790612bbe565b60405180910390fd5b7ffba326816d301571205c7fef243dc1d5e0c6c89aac5de01ceeca254772321a0a33878787604051610ab59493929190612b3c565b60405180910390a1610ade33610ad68487876114809092919063ffffffff16565b60001c611606565b505050505050565b606060018054610af59061319a565b80601f0160208091040260200160405190810160405280929190818152602001828054610b219061319a565b8015610b6e5780601f10610b4357610100808354040283529160200191610b6e565b820191906000526020600020905b815481529060010190602001808311610b5157829003601f168201915b5050505050905090565b610b80610fe9565b73ffffffffffffffffffffffffffffffffffffffff168273ffffffffffffffffffffffffffffffffffffffff161415610bee576040517f08c379a0000000000000000000000000000000000000000000000000000000008152600401610be590612c7e565b60405180910390fd5b8060056000610bfb610fe9565b73ffffffffffffffffffffffffffffffffffffffff1673ffffffffffffffffffffffffffffffffffffffff16815260200190815260200160002060008473ffffffffffffffffffffffffffffffffffffffff1673ffffffffffffffffffffffffffffffffffffffff16815260200190815260200160002060006101000a81548160ff0219169083151502179055508173ffffffffffffffffffffffffffffffffffffffff16610ca8610fe9565b73ffffffffffffffffffffffffffffffffffffffff167f17307eab39ab6107e8899845ad3d59bd9653f200f220920489ca2b5937696c3183604051610ced9190612b81565b60405180910390a35050565b610d0a610d04610fe9565b836110aa565b610d49576040517f08c379a0000000000000000000000000000000000000000000000000000000008152600401610d4090612dbe565b60405180910390fd5b610d55848484846117d4565b50505050565b6060610d6682610f7d565b610da5576040517f08c379a0000000000000000000000000000000000000000000000000000000008152600401610d9c90612d7e565b60405180910390fd5b6000610daf611830565b90506000815111610dcf5760405180602001604052806000815250610dfa565b80610dd984611847565b604051602001610dea929190612ab1565b6040516020818303038152906040525b915050919050565b6000600560008473ffffffffffffffffffffffffffffffffffffffff1673ffffffffffffffffffffffffffffffffffffffff16815260200190815260200160002060008373ffffffffffffffffffffffffffffffffffffffff1673ffffffffffffffffffffffffffffffffffffffff16815260200190815260200160002060009054906101000a900460ff16905092915050565b505050565b60007f80ac58cd000000000000000000000000000000000000000000000000000000007bffffffffffffffffffffffffffffffffffffffffffffffffffffffff1916827bffffffffffffffffffffffffffffffffffffffffffffffffffffffff19161480610f6657507f5b5e139f000000000000000000000000000000000000000000000000000000007bffffffffffffffffffffffffffffffffffffffffffffffffffffffff1916827bffffffffffffffffffffffffffffffffffffffffffffffffffffffff1916145b80610f765750610f75826119f4565b5b9050919050565b60008073ffffffffffffffffffffffffffffffffffffffff166002600084815260200190815260200160002060009054906101000a900473ffffffffffffffffffffffffffffffffffffffff1673ffffffffffffffffffffffffffffffffffffffff1614159050919050565b600033905090565b816004600083815260200190815260200160002060006101000a81548173ffffffffffffffffffffffffffffffffffffffff021916908373ffffffffffffffffffffffffffffffffffffffff160217905550808273ffffffffffffffffffffffffffffffffffffffff166110648361083f565b73ffffffffffffffffffffffffffffffffffffffff167f8c5be1e5ebec7d5bd14f71427d1e84f3dd0314c0f7b2291e5b200ac8c7c3b92560405160405180910390a45050565b60006110b582610f7d565b6110f4576040517f08c379a00000000000000000000000000000000000000000000000000000000081526004016110eb90612c9e565b60405180910390fd5b60006110ff8361083f565b90508073ffffffffffffffffffffffffffffffffffffffff168473ffffffffffffffffffffffffffffffffffffffff16148061116e57508373ffffffffffffffffffffffffffffffffffffffff16611156846104d9565b73ffffffffffffffffffffffffffffffffffffffff16145b8061117f575061117e8185610e02565b5b91505092915050565b8273ffffffffffffffffffffffffffffffffffffffff166111a88261083f565b73ffffffffffffffffffffffffffffffffffffffff16146111fe576040517f08c379a00000000000000000000000000000000000000000000000000000000081526004016111f590612d5e565b60405180910390fd5b600073ffffffffffffffffffffffffffffffffffffffff168273ffffffffffffffffffffffffffffffffffffffff16141561126e576040517f08c379a000000000000000000000000000000000000000000000000000000000815260040161126590612c5e565b60405180910390fd5b611279838383611a5e565b611284600082610ff1565b6001600360008573ffffffffffffffffffffffffffffffffffffffff1673ffffffffffffffffffffffffffffffffffffffff16815260200190815260200160002060008282546112d4919061302d565b925050819055506001600360008473ffffffffffffffffffffffffffffffffffffffff1673ffffffffffffffffffffffffffffffffffffffff168152602001908152602001600020600082825461132b9190612f00565b92505081905550816002600083815260200190815260200160002060006101000a81548173ffffffffffffffffffffffffffffffffffffffff021916908373ffffffffffffffffffffffffffffffffffffffff160217905550808273ffffffffffffffffffffffffffffffffffffffff168473ffffffffffffffffffffffffffffffffffffffff167fddf252ad1be2c89b69c2b068fc378daa952ba7f163c4a11628f55a4df523b3ef60405160405180910390a4505050565b60008060001b8214156113fa576000905061142a565b6000604090505b6000801b831461142557808061141690613170565b915050600483901c9250611401565b809150505b919050565b60008061143d858585611480565b90506000600161144c866113e4565b611455886113e4565b61145f9190612f56565b6114699190612f56565b90506114758282611b72565b925050509392505050565b600080600367ffffffffffffffff8111156114c4577f4e487b7100000000000000000000000000000000000000000000000000000000600052604160045260246000fd5b6040519080825280602002602001820160405280156114f25781602001602082028036833780820191505090505b5090508260001b81600081518110611533577f4e487b7100000000000000000000000000000000000000000000000000000000600052603260045260246000fd5b602002602001018181525050848160018151811061157a577f4e487b7100000000000000000000000000000000000000000000000000000000600052603260045260246000fd5b60200260200101818152505083816002815181106115c1577f4e487b7100000000000000000000000000000000000000000000000000000000600052603260045260246000fd5b6020026020010181815250506115d681611baa565b6040516020016115e69190612a9a565b604051602081830303815290604052805190602001209150509392505050565b600073ffffffffffffffffffffffffffffffffffffffff168273ffffffffffffffffffffffffffffffffffffffff161415611676576040517f08c379a000000000000000000000000000000000000000000000000000000000815260040161166d90612d1e565b60405180910390fd5b61167f81610f7d565b156116bf576040517f08c379a00000000000000000000000000000000000000000000000000000000081526004016116b690612c1e565b60405180910390fd5b6116cb60008383611a5e565b6001600360008473ffffffffffffffffffffffffffffffffffffffff1673ffffffffffffffffffffffffffffffffffffffff168152602001908152602001600020600082825461171b9190612f00565b92505081905550816002600083815260200190815260200160002060006101000a81548173ffffffffffffffffffffffffffffffffffffffff021916908373ffffffffffffffffffffffffffffffffffffffff160217905550808273ffffffffffffffffffffffffffffffffffffffff16600073ffffffffffffffffffffffffffffffffffffffff167fddf252ad1be2c89b69c2b068fc378daa952ba7f163c4a11628f55a4df523b3ef60405160405180910390a45050565b6117df848484611188565b6117eb84848484611e5c565b61182a576040517f08c379a000000000000000000000000000000000000000000000000000000000815260040161182190612bfe565b60405180910390fd5b50505050565b606060405180602001604052806000815250905090565b6060600082141561188f576040518060400160405280600181526020017f300000000000000000000000000000000000000000000000000000000000000081525090506119ef565b600082905060005b600082146118c15780806118aa906131fd565b915050600a826118ba9190612f8d565b9150611897565b60008167ffffffffffffffff811115611903577f4e487b7100000000000000000000000000000000000000000000000000000000600052604160045260246000fd5b6040519080825280601f01601f1916602001820160405280156119355781602001600182028036833780820191505090505b5090505b600085146119e85760018261194e919061302d565b9150600a8561195d9190613246565b60306119699190612f00565b60f81b8183815181106119a5577f4e487b7100000000000000000000000000000000000000000000000000000000600052603260045260246000fd5b60200101907effffffffffffffffffffffffffffffffffffffffffffffffffffffffffffff1916908160001a905350600a856119e19190612f8d565b9450611939565b8093505050505b919050565b60007f01ffc9a7000000000000000000000000000000000000000000000000000000007bffffffffffffffffffffffffffffffffffffffffffffffffffffffff1916827bffffffffffffffffffffffffffffffffffffffffffffffffffffffff1916149050919050565b611a69838383610e96565b600073ffffffffffffffffffffffffffffffffffffffff168373ffffffffffffffffffffffffffffffffffffffff161415611aac57611aa781611ff3565b611aeb565b8173ffffffffffffffffffffffffffffffffffffffff168373ffffffffffffffffffffffffffffffffffffffff1614611aea57611ae9838261203c565b5b5b600073ffffffffffffffffffffffffffffffffffffffff168273ffffffffffffffffffffffffffffffffffffffff161415611b2e57611b29816121a9565b611b6d565b8273ffffffffffffffffffffffffffffffffffffffff168273ffffffffffffffffffffffffffffffffffffffff1614611b6c57611b6b82826122ec565b5b5b505050565b600080600483611b829190612fbe565b60ff16610100611b929190612ff9565b61ffff1684901c90506000801b811491505092915050565b606060008251905060005b80611e525760005b600183611bca9190613061565b60ff16811015611e4c576001915084600182611be69190612f00565b81518110611c1d577f4e487b7100000000000000000000000000000000000000000000000000000000600052603260045260246000fd5b6020026020010151858281518110611c5e577f4e487b7100000000000000000000000000000000000000000000000000000000600052603260045260246000fd5b60200260200101511115611e39576000915084600182611c7e9190612f00565b81518110611cb5577f4e487b7100000000000000000000000000000000000000000000000000000000600052603260045260246000fd5b6020026020010151858281518110611cf6577f4e487b7100000000000000000000000000000000000000000000000000000000600052603260045260246000fd5b602002602001018181511891508181525050848181518110611d41577f4e487b7100000000000000000000000000000000000000000000000000000000600052603260045260246000fd5b602002602001015185600183611d579190612f00565b81518110611d8e577f4e487b7100000000000000000000000000000000000000000000000000000000600052603260045260246000fd5b60200260200101818151189150818152505084600182611dae9190612f00565b81518110611de5577f4e487b7100000000000000000000000000000000000000000000000000000000600052603260045260246000fd5b6020026020010151858281518110611e26577f4e487b7100000000000000000000000000000000000000000000000000000000600052603260045260246000fd5b6020026020010181815118915081815250505b8080611e44906131fd565b915050611bbd565b50611bb5565b8392505050919050565b6000611e7d8473ffffffffffffffffffffffffffffffffffffffff1661236b565b15611fe6578373ffffffffffffffffffffffffffffffffffffffff1663150b7a02611ea6610fe9565b8786866040518563ffffffff1660e01b8152600401611ec89493929190612af0565b602060405180830381600087803b158015611ee257600080fd5b505af1925050508015611f1357506040513d601f19601f82011682018060405250810190611f10919061261f565b60015b611f96573d8060008114611f43576040519150601f19603f3d011682016040523d82523d6000602084013e611f48565b606091505b50600081511415611f8e576040517f08c379a0000000000000000000000000000000000000000000000000000000008152600401611f8590612bfe565b60405180910390fd5b805181602001fd5b63150b7a0260e01b7bffffffffffffffffffffffffffffffffffffffffffffffffffffffff1916817bffffffffffffffffffffffffffffffffffffffffffffffffffffffff191614915050611feb565b600190505b949350505050565b6008805490506009600083815260200190815260200160002081905550600881908060018154018082558091505060019003906000526020600020016000909190919091505550565b60006001612049846108f1565b612053919061302d565b9050600060076000848152602001908152602001600020549050818114612138576000600660008673ffffffffffffffffffffffffffffffffffffffff1673ffffffffffffffffffffffffffffffffffffffff168152602001908152602001600020600084815260200190815260200160002054905080600660008773ffffffffffffffffffffffffffffffffffffffff1673ffffffffffffffffffffffffffffffffffffffff168152602001908152602001600020600084815260200190815260200160002081905550816007600083815260200190815260200160002081905550505b6007600084815260200190815260200160002060009055600660008573ffffffffffffffffffffffffffffffffffffffff1673ffffffffffffffffffffffffffffffffffffffff16815260200190815260200160002060008381526020019081526020016000206000905550505050565b600060016008805490506121bd919061302d565b9050600060096000848152602001908152602001600020549050600060088381548110612213577f4e487b7100000000000000000000000000000000000000000000000000000000600052603260045260246000fd5b90600052602060002001549050806008838154811061225b577f4e487b7100000000000000000000000000000000000000000000000000000000600052603260045260246000fd5b9060005260206000200181905550816009600083815260200190815260200160002081905550600960008581526020019081526020016000206000905560088054806122d0577f4e487b7100000000000000000000000000000000000000000000000000000000600052603160045260246000fd5b6001900381819060005260206000200160009055905550505050565b60006122f7836108f1565b905081600660008573ffffffffffffffffffffffffffffffffffffffff1673ffffffffffffffffffffffffffffffffffffffff168152602001908152602001600020600083815260200190815260200160002081905550806007600084815260200190815260200160002081905550505050565b600080823b905060008111915050919050565b600061239161238c84612e59565b612e34565b9050828152602081018484840111156123a957600080fd5b6123b484828561312e565b509392505050565b6000813590506123cb816138ac565b92915050565b6000813590506123e0816138c3565b92915050565b6000813590506123f5816138da565b92915050565b60008151905061240a816138da565b92915050565b600082601f83011261242157600080fd5b813561243184826020860161237e565b91505092915050565b600081359050612449816138f1565b92915050565b60006020828403121561246157600080fd5b600061246f848285016123bc565b91505092915050565b6000806040838503121561248b57600080fd5b6000612499858286016123bc565b92505060206124aa858286016123bc565b9150509250929050565b6000806000606084860312156124c957600080fd5b60006124d7868287016123bc565b93505060206124e8868287016123bc565b92505060406124f98682870161243a565b9150509250925092565b6000806000806080858703121561251957600080fd5b6000612527878288016123bc565b9450506020612538878288016123bc565b93505060406125498782880161243a565b925050606085013567ffffffffffffffff81111561256657600080fd5b61257287828801612410565b91505092959194509250565b6000806040838503121561259157600080fd5b600061259f858286016123bc565b92505060206125b0858286016123d1565b9150509250929050565b600080604083850312156125cd57600080fd5b60006125db858286016123bc565b92505060206125ec8582860161243a565b9150509250929050565b60006020828403121561260857600080fd5b6000612616848285016123e6565b91505092915050565b60006020828403121561263157600080fd5b600061263f848285016123fb565b91505092915050565b60006020828403121561265a57600080fd5b60006126688482850161243a565b91505092915050565b60008060006060848603121561268657600080fd5b60006126948682870161243a565b93505060206126a58682870161243a565b92505060406126b68682870161243a565b9150509250925092565b60006126cc8383612754565b60208301905092915050565b6126e181613095565b82525050565b60006126f282612e9a565b6126fc8185612ec8565b935061270783612e8a565b8060005b8381101561273857815161271f88826126c0565b975061272a83612ebb565b92505060018101905061270b565b5085935050505092915050565b61274e816130a7565b82525050565b61275d816130b3565b82525050565b600061276e82612ea5565b6127788185612ed3565b935061278881856020860161313d565b61279181613333565b840191505092915050565b60006127a782612eb0565b6127b18185612ee4565b93506127c181856020860161313d565b6127ca81613333565b840191505092915050565b60006127e082612eb0565b6127ea8185612ef5565b93506127fa81856020860161313d565b80840191505092915050565b6000612813606e83612ee4565b915061281e82613344565b608082019050919050565b6000612836602b83612ee4565b9150612841826133df565b604082019050919050565b6000612859603283612ee4565b91506128648261342e565b604082019050919050565b600061287c601c83612ee4565b91506128878261347d565b602082019050919050565b600061289f603283612ee4565b91506128aa826134a6565b604082019050919050565b60006128c2602483612ee4565b91506128cd826134f5565b604082019050919050565b60006128e5601983612ee4565b91506128f082613544565b602082019050919050565b6000612908602c83612ee4565b91506129138261356d565b604082019050919050565b600061292b603883612ee4565b9150612936826135bc565b604082019050919050565b600061294e602a83612ee4565b91506129598261360b565b604082019050919050565b6000612971602983612ee4565b915061297c8261365a565b604082019050919050565b6000612994602083612ee4565b915061299f826136a9565b602082019050919050565b60006129b7602c83612ee4565b91506129c2826136d2565b604082019050919050565b60006129da602983612ee4565b91506129e582613721565b604082019050919050565b60006129fd602f83612ee4565b9150612a0882613770565b604082019050919050565b6000612a20602183612ee4565b9150612a2b826137bf565b604082019050919050565b6000612a43603183612ee4565b9150612a4e8261380e565b604082019050919050565b6000612a66602c83612ee4565b9150612a718261385d565b604082019050919050565b612a8581613117565b82525050565b612a9481613121565b82525050565b6000612aa682846126e7565b915081905092915050565b6000612abd82856127d5565b9150612ac982846127d5565b91508190509392505050565b6000602082019050612aea60008301846126d8565b92915050565b6000608082019050612b0560008301876126d8565b612b1260208301866126d8565b612b1f6040830185612a7c565b8181036060830152612b318184612763565b905095945050505050565b6000608082019050612b5160008301876126d8565b612b5e6020830186612a7c565b612b6b6040830185612a7c565b612b786060830184612a7c565b95945050505050565b6000602082019050612b966000830184612745565b92915050565b60006020820190508181036000830152612bb6818461279c565b905092915050565b60006020820190508181036000830152612bd781612806565b9050919050565b60006020820190508181036000830152612bf781612829565b9050919050565b60006020820190508181036000830152612c178161284c565b9050919050565b60006020820190508181036000830152612c378161286f565b9050919050565b60006020820190508181036000830152612c5781612892565b9050919050565b60006020820190508181036000830152612c77816128b5565b9050919050565b60006020820190508181036000830152612c97816128d8565b9050919050565b60006020820190508181036000830152612cb7816128fb565b9050919050565b60006020820190508181036000830152612cd78161291e565b9050919050565b60006020820190508181036000830152612cf781612941565b9050919050565b60006020820190508181036000830152612d1781612964565b9050919050565b60006020820190508181036000830152612d3781612987565b9050919050565b60006020820190508181036000830152612d57816129aa565b9050919050565b60006020820190508181036000830152612d77816129cd565b9050919050565b60006020820190508181036000830152612d97816129f0565b9050919050565b60006020820190508181036000830152612db781612a13565b9050919050565b60006020820190508181036000830152612dd781612a36565b9050919050565b60006020820190508181036000830152612df781612a59565b9050919050565b6000602082019050612e136000830184612a7c565b92915050565b6000602082019050612e2e6000830184612a8b565b92915050565b6000612e3e612e4f565b9050612e4a82826131cc565b919050565b6000604051905090565b600067ffffffffffffffff821115612e7457612e73613304565b5b612e7d82613333565b9050602081019050919050565b6000819050602082019050919050565b600081519050919050565b600081519050919050565b600081519050919050565b6000602082019050919050565b600081905092915050565b600082825260208201905092915050565b600082825260208201905092915050565b600081905092915050565b6000612f0b82613117565b9150612f1683613117565b9250827fffffffffffffffffffffffffffffffffffffffffffffffffffffffffffffffff03821115612f4b57612f4a613277565b5b828201905092915050565b6000612f6182613121565b9150612f6c83613121565b92508260ff03821115612f8257612f81613277565b5b828201905092915050565b6000612f9882613117565b9150612fa383613117565b925082612fb357612fb26132a6565b5b828204905092915050565b6000612fc982613121565b9150612fd483613121565b92508160ff0483118215151615612fee57612fed613277565b5b828202905092915050565b6000613004826130e9565b915061300f836130e9565b92508282101561302257613021613277565b5b828203905092915050565b600061303882613117565b915061304383613117565b92508282101561305657613055613277565b5b828203905092915050565b600061306c82613121565b915061307783613121565b92508282101561308a57613089613277565b5b828203905092915050565b60006130a0826130f7565b9050919050565b60008115159050919050565b6000819050919050565b60007fffffffff0000000000000000000000000000000000000000000000000000000082169050919050565b600061ffff82169050919050565b600073ffffffffffffffffffffffffffffffffffffffff82169050919050565b6000819050919050565b600060ff82169050919050565b82818337600083830152505050565b60005b8381101561315b578082015181840152602081019050613140565b8381111561316a576000848401525b50505050565b600061317b82613121565b9150600082141561318f5761318e613277565b5b600182039050919050565b600060028204905060018216806131b257607f821691505b602082108114156131c6576131c56132d5565b5b50919050565b6131d582613333565b810181811067ffffffffffffffff821117156131f4576131f3613304565b5b80604052505050565b600061320882613117565b91507fffffffffffffffffffffffffffffffffffffffffffffffffffffffffffffffff82141561323b5761323a613277565b5b600182019050919050565b600061325182613117565b915061325c83613117565b92508261326c5761326b6132a6565b5b828206905092915050565b7f4e487b7100000000000000000000000000000000000000000000000000000000600052601160045260246000fd5b7f4e487b7100000000000000000000000000000000000000000000000000000000600052601260045260246000fd5b7f4e487b7100000000000000000000000000000000000000000000000000000000600052602260045260246000fd5b7f4e487b7100000000000000000000000000000000000000000000000000000000600052604160045260246000fd5b6000601f19601f8301169050919050565b7f54686973206e6f6e636520646f6573206e6f7420776f726b20746f206d696e7460008201527f207468697320656c656d656e742e2054686520656c656d656e742077696c6c2060208201527f6e6f74206265206d696e74656420756e74696c20796f752066696e642074686560408201527f20636f7272656374206e6f6e6365000000000000000000000000000000000000606082015250565b7f455243373231456e756d657261626c653a206f776e657220696e646578206f7560008201527f74206f6620626f756e6473000000000000000000000000000000000000000000602082015250565b7f4552433732313a207472616e7366657220746f206e6f6e20455243373231526560008201527f63656976657220696d706c656d656e7465720000000000000000000000000000602082015250565b7f4552433732313a20746f6b656e20616c7265616479206d696e74656400000000600082015250565b7f4d75737420636f6d62696e65206578697374696e6720656c656d656e7473207460008201527f6f206372656174652061206e6577206f6e650000000000000000000000000000602082015250565b7f4552433732313a207472616e7366657220746f20746865207a65726f2061646460008201527f7265737300000000000000000000000000000000000000000000000000000000602082015250565b7f4552433732313a20617070726f766520746f2063616c6c657200000000000000600082015250565b7f4552433732313a206f70657261746f7220717565727920666f72206e6f6e657860008201527f697374656e7420746f6b656e0000000000000000000000000000000000000000602082015250565b7f4552433732313a20617070726f76652063616c6c6572206973206e6f74206f7760008201527f6e6572206e6f7220617070726f76656420666f7220616c6c0000000000000000602082015250565b7f4552433732313a2062616c616e636520717565727920666f7220746865207a6560008201527f726f206164647265737300000000000000000000000000000000000000000000602082015250565b7f4552433732313a206f776e657220717565727920666f72206e6f6e657869737460008201527f656e7420746f6b656e0000000000000000000000000000000000000000000000602082015250565b7f4552433732313a206d696e7420746f20746865207a65726f2061646472657373600082015250565b7f4552433732313a20617070726f76656420717565727920666f72206e6f6e657860008201527f697374656e7420746f6b656e0000000000000000000000000000000000000000602082015250565b7f4552433732313a207472616e73666572206f6620746f6b656e2074686174206960008201527f73206e6f74206f776e0000000000000000000000000000000000000000000000602082015250565b7f4552433732314d657461646174613a2055524920717565727920666f72206e6f60008201527f6e6578697374656e7420746f6b656e0000000000000000000000000000000000602082015250565b7f4552433732313a20617070726f76616c20746f2063757272656e74206f776e6560008201527f7200000000000000000000000000000000000000000000000000000000000000602082015250565b7f4552433732313a207472616e736665722063616c6c6572206973206e6f74206f60008201527f776e6572206e6f7220617070726f766564000000000000000000000000000000602082015250565b7f455243373231456e756d657261626c653a20676c6f62616c20696e646578206f60008201527f7574206f6620626f756e64730000000000000000000000000000000000000000602082015250565b6138b581613095565b81146138c057600080fd5b50565b6138cc816130a7565b81146138d757600080fd5b50565b6138e3816130bd565b81146138ee57600080fd5b50565b6138fa81613117565b811461390557600080fd5b5056fea2646970667358221220dcf4621a6773984be6af0a109f4742d3e02cf0dc2228c191a9248b852c0d401264736f6c63430008010033",
  "immutableReferences": {},
  "source": "//SPDX-License-Identifier: None\npragma solidity ^0.8.0;\n\nimport \"../node_modules/@openzeppelin/contracts/token/ERC721/extensions/ERC721Enumerable.sol\";\nimport \"./Mining.sol\";\n\n/**\n* @title Elements\n* @author Carson Case\n */\ncontract Elements is ERC721Enumerable{\n    using mining for bytes32;           //Mining Library\n    address dev;\n    \n    event NewElement(address, uint256, uint256, uint256);\n\n    /**\n    * @notice constructor mints the 4 base elements to dev\n     */\n    constructor() ERC721(\"Elements\", \"ELM\"){\n        //Set dev\n        dev = msg.sender;\n        //Mint the origional 4 elements to dev\n        _mint(dev, 0xc<<4*63);      //Water\n        _mint(dev, 0xe<<4*63);      //Earth\n        _mint(dev, 0xf<<4*63);      //Fire\n        _mint(dev, 0xa<<4*63);      //Air\n    }\n\n    /**\n    * @notice mintNew function can be called to mint a new element. If it is mined correctly\n    * @param _id1 is the first NFT id \n    * @param _id2 is the second NFT id\n    * @param _nonce is the nonce found when mining\n     */\n    function mintNew(uint256 _id1, uint256 _id2, uint256 _nonce) external{\n        require(_exists(_id1) && _exists(_id2),\"Must combine existing elements to create a new one\");\n        bytes32 id1 = bytes32(_id1);\n        bytes32 id2 = bytes32(_id2);\n        bool r = id1.checkNonce(id2, _nonce);\n        require(r, \"This nonce does not work to mint this element. The element will not be minted until you find the correct nonce\");\n        emit NewElement(msg.sender, _id1, _id2, _nonce);\n        _mint(msg.sender, uint256(id1.hash(id2, _nonce)));\n    }\n\n    /**\n    * @notice getLevel returns the score of an element. It's hex strings leading 0s. Since JS will remove them\n    * @param _id to lookup\n    * @return the # of leading zeros\n     */\n    function getLevel(uint256 _id) external pure returns(uint8){\n        return bytes32(_id).countScore();\n    }\n\n}",
  "sourcePath": "/home/carson/Documents/programming/blockchain/elemental-nfts/smartContracts/contracts/Elements.sol",
  "compiler": {
    "name": "solc",
    "version": "0.8.1+commit.df193b15.Emscripten.clang"
  },
  "schemaVersion": "3.3.4",
  "updatedAt": "2021-04-21T22:23:20.992Z",
  "networkType": "ethereum",
  "devdoc": {
    "author": "Carson Case",
    "kind": "dev",
    "methods": {
      "approve(address,uint256)": {
        "details": "See {IERC721-approve}."
      },
      "balanceOf(address)": {
        "details": "See {IERC721-balanceOf}."
      },
      "getApproved(uint256)": {
        "details": "See {IERC721-getApproved}."
      },
      "getLevel(uint256)": {
        "params": {
          "_id": "to lookup"
        },
        "returns": {
          "_0": "the # of leading zeros"
        }
      },
      "isApprovedForAll(address,address)": {
        "details": "See {IERC721-isApprovedForAll}."
      },
      "mintNew(uint256,uint256,uint256)": {
        "params": {
          "_id1": "is the first NFT id ",
          "_id2": "is the second NFT id",
          "_nonce": "is the nonce found when mining"
        }
      },
      "name()": {
        "details": "See {IERC721Metadata-name}."
      },
      "ownerOf(uint256)": {
        "details": "See {IERC721-ownerOf}."
      },
      "safeTransferFrom(address,address,uint256)": {
        "details": "See {IERC721-safeTransferFrom}."
      },
      "safeTransferFrom(address,address,uint256,bytes)": {
        "details": "See {IERC721-safeTransferFrom}."
      },
      "setApprovalForAll(address,bool)": {
        "details": "See {IERC721-setApprovalForAll}."
      },
      "supportsInterface(bytes4)": {
        "details": "See {IERC165-supportsInterface}."
      },
      "symbol()": {
        "details": "See {IERC721Metadata-symbol}."
      },
      "tokenByIndex(uint256)": {
        "details": "See {IERC721Enumerable-tokenByIndex}."
      },
      "tokenOfOwnerByIndex(address,uint256)": {
        "details": "See {IERC721Enumerable-tokenOfOwnerByIndex}."
      },
      "tokenURI(uint256)": {
        "details": "See {IERC721Metadata-tokenURI}."
      },
      "totalSupply()": {
        "details": "See {IERC721Enumerable-totalSupply}."
      },
      "transferFrom(address,address,uint256)": {
        "details": "See {IERC721-transferFrom}."
      }
    },
    "title": "Elements",
    "version": 1
  },
  "userdoc": {
    "kind": "user",
    "methods": {
      "constructor": {
        "notice": "constructor mints the 4 base elements to dev"
      },
      "getLevel(uint256)": {
        "notice": "getLevel returns the score of an element. It's hex strings leading 0s. Since JS will remove them"
      },
      "mintNew(uint256,uint256,uint256)": {
        "notice": "mintNew function can be called to mint a new element. If it is mined correctly"
      }
    },
    "version": 1
  }
}